{
  "contractName": "Astreaus",
  "abi": [
    {
      "inputs": [],
      "stateMutability": "nonpayable",
      "type": "constructor"
    },
    {
      "anonymous": false,
      "inputs": [
        {
          "indexed": true,
          "internalType": "address",
          "name": "_owner",
          "type": "address"
        },
        {
          "indexed": true,
          "internalType": "address",
          "name": "_approved",
          "type": "address"
        },
        {
          "indexed": true,
          "internalType": "uint256",
          "name": "_tokenId",
          "type": "uint256"
        }
      ],
      "name": "Approval",
      "type": "event"
    },
    {
      "anonymous": false,
      "inputs": [
        {
          "indexed": true,
          "internalType": "address",
          "name": "_from",
          "type": "address"
        },
        {
          "indexed": true,
          "internalType": "address",
          "name": "_to",
          "type": "address"
        },
        {
          "indexed": true,
          "internalType": "uint256",
          "name": "_tokenId",
          "type": "uint256"
        }
      ],
      "name": "Transfer",
      "type": "event"
    },
    {
      "inputs": [
        {
          "internalType": "uint256",
          "name": "",
          "type": "uint256"
        }
      ],
      "name": "AstreausNFTs",
      "outputs": [
        {
          "internalType": "string",
          "name": "",
          "type": "string"
        }
      ],
      "stateMutability": "view",
      "type": "function",
      "constant": true
    },
    {
      "inputs": [
        {
          "internalType": "address",
          "name": "_to",
          "type": "address"
        },
        {
          "internalType": "uint256",
          "name": "tokenId",
          "type": "uint256"
        }
      ],
      "name": "approve",
      "outputs": [],
      "stateMutability": "nonpayable",
      "type": "function"
    },
    {
      "inputs": [
        {
          "internalType": "address",
          "name": "_owner",
          "type": "address"
        }
      ],
      "name": "balanceOf",
      "outputs": [
        {
          "internalType": "uint256",
          "name": "",
          "type": "uint256"
        }
      ],
      "stateMutability": "view",
      "type": "function",
      "constant": true
    },
    {
      "inputs": [],
      "name": "name",
      "outputs": [
        {
          "internalType": "string",
          "name": "",
          "type": "string"
        }
      ],
      "stateMutability": "view",
      "type": "function",
      "constant": true
    },
    {
      "inputs": [
        {
          "internalType": "uint256",
          "name": "_tokenId",
          "type": "uint256"
        }
      ],
      "name": "ownerOf",
      "outputs": [
        {
          "internalType": "address",
          "name": "",
          "type": "address"
        }
      ],
      "stateMutability": "view",
      "type": "function",
      "constant": true
    },
    {
      "inputs": [
        {
          "internalType": "bytes4",
          "name": "interfaceID",
          "type": "bytes4"
        }
      ],
      "name": "supportsInterface",
      "outputs": [
        {
          "internalType": "bool",
          "name": "",
          "type": "bool"
        }
      ],
      "stateMutability": "view",
      "type": "function",
      "constant": true
    },
    {
      "inputs": [],
      "name": "symbol",
      "outputs": [
        {
          "internalType": "string",
          "name": "",
          "type": "string"
        }
      ],
      "stateMutability": "view",
      "type": "function",
      "constant": true
    },
    {
      "inputs": [
        {
          "internalType": "uint256",
          "name": "_index",
          "type": "uint256"
        }
      ],
      "name": "tokenByIndex",
      "outputs": [
        {
          "internalType": "uint256",
          "name": "",
          "type": "uint256"
        }
      ],
      "stateMutability": "view",
      "type": "function",
      "constant": true
    },
    {
      "inputs": [
        {
          "internalType": "address",
          "name": "_owner",
          "type": "address"
        },
        {
          "internalType": "uint256",
          "name": "_index",
          "type": "uint256"
        }
      ],
      "name": "tokenOfOwnerByIndex",
      "outputs": [
        {
          "internalType": "uint256",
          "name": "",
          "type": "uint256"
        }
      ],
      "stateMutability": "view",
      "type": "function",
      "constant": true
    },
    {
      "inputs": [],
      "name": "totalSupply",
      "outputs": [
        {
          "internalType": "uint256",
          "name": "",
          "type": "uint256"
        }
      ],
      "stateMutability": "view",
      "type": "function",
      "constant": true
    },
    {
      "inputs": [
        {
          "internalType": "address",
          "name": "_from",
          "type": "address"
        },
        {
          "internalType": "address",
          "name": "_to",
          "type": "address"
        },
        {
          "internalType": "uint256",
          "name": "_tokenId",
          "type": "uint256"
        }
      ],
      "name": "transferFrom",
      "outputs": [],
      "stateMutability": "nonpayable",
      "type": "function"
    },
    {
      "inputs": [
        {
          "internalType": "string",
          "name": "_infos",
          "type": "string"
        }
      ],
      "name": "mint",
      "outputs": [],
      "stateMutability": "nonpayable",
      "type": "function"
    }
  ],
  "bytecode": "0x60806040523480156200001157600080fd5b506040518060400160405280600881526020017f41737472656175730000000000000000000000000000000000000000000000008152506040518060400160405280600381526020017f41535800000000000000000000000000000000000000000000000000000000008152508181620000b17f01ffc9a7a5cef8baa21ed3c5c0d7e23accb804b619e9333b597f47a0d84076e26200022a60201b60201c565b8160019080519060200190620000c992919062000326565b508060029080519060200190620000e292919062000326565b50620001367f13b182f4c0e5b2efbac0efe6cf6d756c8b89f4b79c5707a043ed9ea740574ee97f7feaf19471f34a12a7eaf32d5f3090aa2260ea8624dc8a138e74e0bf0f623076186200022a60201b60201c565b5050620001ad7f22c82707ba960a14c7592ffb6b8cfaa073fed0048a84cc7fa41f6b5bd8e7f2e47f3a6eb71757dfc6e784c1459d26270140c2c147d95ca985c80026fc5301c3eca17f8a7e378434598edc36d108689a030cbc9d7d465de4f74c71bae1028eed6a881b18186200022a60201b60201c565b620002227f8230223f691b981717299fae9549350a0d894555723531f02108b1f522c1a7977f6da5e1284143cdd2d15038a59bde3be031250f00291d64494c12d967b3a4e0c37fc53637662700e6c65104059db8bba34439e0c32483ab7c34e3ccae52c739549518186200022a60201b60201c565b5050620004bd565b600063ffffffff60e01b9050807bffffffffffffffffffffffffffffffffffffffffffffffffffffffff1916827bffffffffffffffffffffffffffffffffffffffffffffffffffffffff191603620002b9576040517f08c379a0000000000000000000000000000000000000000000000000000000008152600401620002b09062000437565b60405180910390fd5b6001600080847bffffffffffffffffffffffffffffffffffffffffffffffffffffffff19167bffffffffffffffffffffffffffffffffffffffffffffffffffffffff1916815260200190815260200160002060006101000a81548160ff0219169083151502179055505050565b828054620003349062000488565b90600052602060002090601f016020900481019282620003585760008555620003a4565b82601f106200037357805160ff1916838001178555620003a4565b82800160010185558215620003a4579182015b82811115620003a357825182559160200191906001019062000386565b5b509050620003b39190620003b7565b5090565b5b80821115620003d2576000816000905550600101620003b8565b5090565b600082825260208201905092915050565b7f4552433136352d20496e76616c696420496e7465726661636549440000000000600082015250565b60006200041f601b83620003d6565b91506200042c82620003e7565b602082019050919050565b60006020820190508181036000830152620004528162000410565b9050919050565b7f4e487b7100000000000000000000000000000000000000000000000000000000600052602260045260246000fd5b60006002820490506001821680620004a157607f821691505b602082108103620004b757620004b662000459565b5b50919050565b611d1680620004cd6000396000f3fe608060405234801561001057600080fd5b50600436106100b45760003560e01c80634f6ccce7116100715780634f6ccce71461018d5780636352211e146101bd57806370a08231146101ed57806395d89b411461021d578063ae954fc51461023b578063d85d3d271461026b576100b4565b806301ffc9a7146100b957806306fdde03146100e9578063095ea7b31461010757806318160ddd1461012357806323b872dd146101415780632f745c591461015d575b600080fd5b6100d360048036038101906100ce9190611100565b610287565b6040516100e09190611148565b60405180910390f35b6100f16102ee565b6040516100fe91906111fc565b60405180910390f35b610121600480360381019061011c91906112b2565b610380565b005b61012b61051b565b6040516101389190611301565b60405180910390f35b61015b6004803603810190610156919061131c565b610528565b005b610177600480360381019061017291906112b2565b610538565b6040516101849190611301565b60405180910390f35b6101a760048036038101906101a2919061136f565b610621565b6040516101b49190611301565b60405180910390f35b6101d760048036038101906101d2919061136f565b610693565b6040516101e491906113ab565b60405180910390f35b610207600480360381019061020291906113c6565b610744565b6040516102149190611301565b60405180910390f35b6102256107fb565b60405161023291906111fc565b60405180910390f35b6102556004803603810190610250919061136f565b61088d565b60405161026291906111fc565b60405180910390f35b61028560048036038101906102809190611528565b610939565b005b6000806000837bffffffffffffffffffffffffffffffffffffffffffffffffffffffff19167bffffffffffffffffffffffffffffffffffffffffffffffffffffffff1916815260200190815260200160002060009054906101000a900460ff169050919050565b6060600180546102fd906115a0565b80601f0160208091040260200160405190810160405280929190818152602001828054610329906115a0565b80156103765780601f1061034b57610100808354040283529160200191610376565b820191906000526020600020905b81548152906001019060200180831161035957829003601f168201915b5050505050905090565b600061038b82610693565b90503373ffffffffffffffffffffffffffffffffffffffff168173ffffffffffffffffffffffffffffffffffffffff16146103fb576040517f08c379a00000000000000000000000000000000000000000000000000000000081526004016103f290611643565b60405180910390fd5b8273ffffffffffffffffffffffffffffffffffffffff168173ffffffffffffffffffffffffffffffffffffffff1603610469576040517f08c379a0000000000000000000000000000000000000000000000000000000008152600401610460906116d5565b60405180910390fd5b826005600084815260200190815260200160002060006101000a81548173ffffffffffffffffffffffffffffffffffffffff021916908373ffffffffffffffffffffffffffffffffffffffff160217905550818373ffffffffffffffffffffffffffffffffffffffff168273ffffffffffffffffffffffffffffffffffffffff167f8c5be1e5ebec7d5bd14f71427d1e84f3dd0314c0f7b2291e5b200ac8c7c3b92560405160405180910390a4505050565b6000600680549050905090565b610533838383610a3c565b505050565b600061054383610744565b8210801561057e5750600073ffffffffffffffffffffffffffffffffffffffff168373ffffffffffffffffffffffffffffffffffffffff1614155b6105bd576040517f08c379a00000000000000000000000000000000000000000000000000000000081526004016105b49061178d565b60405180910390fd5b600860008473ffffffffffffffffffffffffffffffffffffffff1673ffffffffffffffffffffffffffffffffffffffff168152602001908152602001600020828154811061060e5761060d6117ad565b5b9060005260206000200154905092915050565b600061062b61051b565b82111561066d576040517f08c379a00000000000000000000000000000000000000000000000000000000081526004016106649061184e565b60405180910390fd5b60068281548110610681576106806117ad565b5b90600052602060002001549050919050565b6000806003600084815260200190815260200160002060009054906101000a900473ffffffffffffffffffffffffffffffffffffffff169050600073ffffffffffffffffffffffffffffffffffffffff168173ffffffffffffffffffffffffffffffffffffffff160361073b576040517f08c379a0000000000000000000000000000000000000000000000000000000008152600401610732906118ba565b60405180910390fd5b80915050919050565b60008073ffffffffffffffffffffffffffffffffffffffff168273ffffffffffffffffffffffffffffffffffffffff16036107b4576040517f08c379a00000000000000000000000000000000000000000000000000000000081526004016107ab90611926565b60405180910390fd5b600460008373ffffffffffffffffffffffffffffffffffffffff1673ffffffffffffffffffffffffffffffffffffffff168152602001908152602001600020549050919050565b60606002805461080a906115a0565b80601f0160208091040260200160405190810160405280929190818152602001828054610836906115a0565b80156108835780601f1061085857610100808354040283529160200191610883565b820191906000526020600020905b81548152906001019060200180831161086657829003601f168201915b5050505050905090565b600a818154811061089d57600080fd5b9060005260206000200160009150905080546108b8906115a0565b80601f01602080910402602001604051908101604052809291908181526020018280546108e4906115a0565b80156109315780601f1061090657610100808354040283529160200191610931565b820191906000526020600020905b81548152906001019060200180831161091457829003601f168201915b505050505081565b600b816040516109499190611982565b908152602001604051809103902060009054906101000a900460ff16156109a5576040517f08c379a000000000000000000000000000000000000000000000000000000000815260040161099c90611a0b565b60405180910390fd5b600a819080600181540180825580915050600190039060005260206000200160009091909190915090805190602001906109e0929190610ff1565b5060006001600a805490506109f59190611a5a565b9050610a013382610c81565b6001600b83604051610a139190611982565b908152602001604051809103902060006101000a81548160ff0219169083151502179055505050565b8273ffffffffffffffffffffffffffffffffffffffff16610a5c82610693565b73ffffffffffffffffffffffffffffffffffffffff1614610ab2576040517f08c379a0000000000000000000000000000000000000000000000000000000008152600401610aa990611b00565b60405180910390fd5b600073ffffffffffffffffffffffffffffffffffffffff168273ffffffffffffffffffffffffffffffffffffffff1603610b21576040517f08c379a0000000000000000000000000000000000000000000000000000000008152600401610b1890611b92565b60405180910390fd5b6001600460008573ffffffffffffffffffffffffffffffffffffffff1673ffffffffffffffffffffffffffffffffffffffff1681526020019081526020016000206000828254610b719190611a5a565b925050819055506001600460008473ffffffffffffffffffffffffffffffffffffffff1673ffffffffffffffffffffffffffffffffffffffff1681526020019081526020016000206000828254610bc89190611bb2565b92505081905550816003600083815260200190815260200160002060006101000a81548173ffffffffffffffffffffffffffffffffffffffff021916908373ffffffffffffffffffffffffffffffffffffffff160217905550808273ffffffffffffffffffffffffffffffffffffffff168473ffffffffffffffffffffffffffffffffffffffff167fddf252ad1be2c89b69c2b068fc378daa952ba7f163c4a11628f55a4df523b3ef60405160405180910390a4505050565b610c8b8282610ca2565b610c9481610e62565b610c9e8282610eab565b5050565b600073ffffffffffffffffffffffffffffffffffffffff168273ffffffffffffffffffffffffffffffffffffffff1603610d11576040517f08c379a0000000000000000000000000000000000000000000000000000000008152600401610d0890611c54565b60405180910390fd5b610d1a81610f6f565b610d59576040517f08c379a0000000000000000000000000000000000000000000000000000000008152600401610d5090611cc0565b60405180910390fd5b816003600083815260200190815260200160002060006101000a81548173ffffffffffffffffffffffffffffffffffffffff021916908373ffffffffffffffffffffffffffffffffffffffff1602179055506001600460008473ffffffffffffffffffffffffffffffffffffffff1673ffffffffffffffffffffffffffffffffffffffff1681526020019081526020016000206000828254610dfb9190611bb2565b92505081905550808273ffffffffffffffffffffffffffffffffffffffff16600073ffffffffffffffffffffffffffffffffffffffff167fddf252ad1be2c89b69c2b068fc378daa952ba7f163c4a11628f55a4df523b3ef60405160405180910390a45050565b6006805490506007600083815260200190815260200160002081905550600681908060018154018082558091505060019003906000526020600020016000909190919091505550565b600860008373ffffffffffffffffffffffffffffffffffffffff1673ffffffffffffffffffffffffffffffffffffffff168152602001908152602001600020819080600181540180825580915050600190039060005260206000200160009091909190915055600860008373ffffffffffffffffffffffffffffffffffffffff1673ffffffffffffffffffffffffffffffffffffffff1681526020019081526020016000208054905060096000838152602001908152602001600020819055505050565b6000806003600084815260200190815260200160002060009054906101000a900473ffffffffffffffffffffffffffffffffffffffff169050600073ffffffffffffffffffffffffffffffffffffffff168173ffffffffffffffffffffffffffffffffffffffff1614610fe6576000915050610fec565b60019150505b919050565b828054610ffd906115a0565b90600052602060002090601f01602090048101928261101f5760008555611066565b82601f1061103857805160ff1916838001178555611066565b82800160010185558215611066579182015b8281111561106557825182559160200191906001019061104a565b5b5090506110739190611077565b5090565b5b80821115611090576000816000905550600101611078565b5090565b6000604051905090565b600080fd5b600080fd5b60007fffffffff0000000000000000000000000000000000000000000000000000000082169050919050565b6110dd816110a8565b81146110e857600080fd5b50565b6000813590506110fa816110d4565b92915050565b6000602082840312156111165761111561109e565b5b6000611124848285016110eb565b91505092915050565b60008115159050919050565b6111428161112d565b82525050565b600060208201905061115d6000830184611139565b92915050565b600081519050919050565b600082825260208201905092915050565b60005b8381101561119d578082015181840152602081019050611182565b838111156111ac576000848401525b50505050565b6000601f19601f8301169050919050565b60006111ce82611163565b6111d8818561116e565b93506111e881856020860161117f565b6111f1816111b2565b840191505092915050565b6000602082019050818103600083015261121681846111c3565b905092915050565b600073ffffffffffffffffffffffffffffffffffffffff82169050919050565b60006112498261121e565b9050919050565b6112598161123e565b811461126457600080fd5b50565b60008135905061127681611250565b92915050565b6000819050919050565b61128f8161127c565b811461129a57600080fd5b50565b6000813590506112ac81611286565b92915050565b600080604083850312156112c9576112c861109e565b5b60006112d785828601611267565b92505060206112e88582860161129d565b9150509250929050565b6112fb8161127c565b82525050565b600060208201905061131660008301846112f2565b92915050565b6000806000606084860312156113355761133461109e565b5b600061134386828701611267565b935050602061135486828701611267565b92505060406113658682870161129d565b9150509250925092565b6000602082840312156113855761138461109e565b5b60006113938482850161129d565b91505092915050565b6113a58161123e565b82525050565b60006020820190506113c0600083018461139c565b92915050565b6000602082840312156113dc576113db61109e565b5b60006113ea84828501611267565b91505092915050565b600080fd5b600080fd5b7f4e487b7100000000000000000000000000000000000000000000000000000000600052604160045260246000fd5b611435826111b2565b810181811067ffffffffffffffff82111715611454576114536113fd565b5b80604052505050565b6000611467611094565b9050611473828261142c565b919050565b600067ffffffffffffffff821115611493576114926113fd565b5b61149c826111b2565b9050602081019050919050565b82818337600083830152505050565b60006114cb6114c684611478565b61145d565b9050828152602081018484840111156114e7576114e66113f8565b5b6114f28482856114a9565b509392505050565b600082601f83011261150f5761150e6113f3565b5b813561151f8482602086016114b8565b91505092915050565b60006020828403121561153e5761153d61109e565b5b600082013567ffffffffffffffff81111561155c5761155b6110a3565b5b611568848285016114fa565b91505092915050565b7f4e487b7100000000000000000000000000000000000000000000000000000000600052602260045260246000fd5b600060028204905060018216806115b857607f821691505b6020821081036115cb576115ca611571565b5b50919050565b7f4572722d417070726f76616c2d30313a20596f7520617265206e6f742074686560008201527f206f776e6572206f6620746f6b656e2100000000000000000000000000000000602082015250565b600061162d60308361116e565b9150611638826115d1565b604082019050919050565b6000602082019050818103600083015261165c81611620565b9050919050565b7f4572722d417070726f76616c2d30323a596f752063616e6e6f7420617070726f60008201527f766520746f20796f7572206f776e206164647265737321000000000000000000602082015250565b60006116bf60378361116e565b91506116ca82611663565b604082019050919050565b600060208201905081810360008301526116ee816116b2565b9050919050565b7f455243373231456e756d3a20496e646578206f66206f776e656420746f6b656e60008201527f73206973206f7574206f6620626f756e6473204f5220496e76616c696420616460208201527f64726573732069732070726f7669646564000000000000000000000000000000604082015250565b600061177760518361116e565b9150611782826116f5565b606082019050919050565b600060208201905081810360008301526117a68161176a565b9050919050565b7f4e487b7100000000000000000000000000000000000000000000000000000000600052603260045260246000fd5b7f455243373231456e756d3a20496e646578206973206f7574206f6620626f756e60008201527f6473210000000000000000000000000000000000000000000000000000000000602082015250565b600061183860238361116e565b9150611843826117dc565b604082019050919050565b600060208201905081810360008301526118678161182b565b9050919050565b7f4552433732313a20496e76616c696420517565727920666f7220746f6b656e73600082015250565b60006118a460208361116e565b91506118af8261186e565b602082019050919050565b600060208201905081810360008301526118d381611897565b9050919050565b7f4552433732313a20496e76616c69642041646472657373210000000000000000600082015250565b600061191060188361116e565b915061191b826118da565b602082019050919050565b6000602082019050818103600083015261193f81611903565b9050919050565b600081905092915050565b600061195c82611163565b6119668185611946565b935061197681856020860161117f565b80840191505092915050565b600061198e8284611951565b915081905092915050565b7f41737472656175734e46543a20496e666f20697320616c72656164792065786960008201527f7374730000000000000000000000000000000000000000000000000000000000602082015250565b60006119f560238361116e565b9150611a0082611999565b604082019050919050565b60006020820190508181036000830152611a24816119e8565b9050919050565b7f4e487b7100000000000000000000000000000000000000000000000000000000600052601160045260246000fd5b6000611a658261127c565b9150611a708361127c565b925082821015611a8357611a82611a2b565b5b828203905092915050565b7f455243373231202d20596f7520617265206e6f7420746865206f776e6572206f60008201527f66207468697320746f6b656e2100000000000000000000000000000000000000602082015250565b6000611aea602d8361116e565b9150611af582611a8e565b604082019050919050565b60006020820190508181036000830152611b1981611add565b9050919050565b7f455243373231202d2053656e64696e6720746f6b656e20746f20616e20696e7660008201527f616c696420616464726573730000000000000000000000000000000000000000602082015250565b6000611b7c602c8361116e565b9150611b8782611b20565b604082019050919050565b60006020820190508181036000830152611bab81611b6f565b9050919050565b6000611bbd8261127c565b9150611bc88361127c565b9250827fffffffffffffffffffffffffffffffffffffffffffffffffffffffffffffffff03821115611bfd57611bfc611a2b565b5b828201905092915050565b7f4d696e74696e6720746f20496e76616c69642041646472657373000000000000600082015250565b6000611c3e601a8361116e565b9150611c4982611c08565b602082019050919050565b60006020820190508181036000830152611c6d81611c31565b9050919050565b7f546f6b656e20616c7265616479206d696e746564210000000000000000000000600082015250565b6000611caa60158361116e565b9150611cb582611c74565b602082019050919050565b60006020820190508181036000830152611cd981611c9d565b905091905056fea2646970667358221220244dfd6b3a40692da948dd2b5386b6757aae84e672df1d147b8e1f299b22859464736f6c634300080e0033",
  "immutableReferences": {},
  "source": "// SPDX-License-Identifier: MIT\npragma solidity >=0.4.22 <0.9.0;\n\nimport './Connector.sol';\n\ncontract Astreaus is ERC721Connector {\n    string[] public AstreausNFTs;   //Array for storing tokens/nft\n    mapping(string => bool) private _infoExists;\n\n    constructor() ERC721Connector(\"Astreaus\", \"ASX\") {\n        // Note:USE CONTRACT NAME IN TRUFFLE DEVELOPMENT!\n    }\n\n    function mint(string memory _infos) public {\n        require(!_infoExists[_infos] ,\"AstreausNFT: Info is already exists\"); //Check if info exists\n        AstreausNFTs.push(_infos);\n        uint _id = AstreausNFTs.length - 1;        \n        _mint(msg.sender, _id);\n        _infoExists[_infos] = true;                             //Push infos into map\n    }\n\n}",
  "sourcePath": "/home/blockr/Desktop/nft/src/contracts/AstreausNFT.sol",
  "compiler": {
    "name": "solc",
    "version": "0.8.14+commit.80d49f37.Emscripten.clang"
  },
  "schemaVersion": "3.4.6",
  "updatedAt": "2022-06-12T12:54:45.791Z",
  "networkType": "ethereum",
  "devdoc": {
    "kind": "dev",
    "methods": {
      "supportsInterface(bytes4)": {
        "details": "Interface identification is specified in ERC-165. This function  uses less than 30,000 gas.",
        "params": {
          "interfaceID": "The interface identifier, as specified in ERC-165"
        },
        "returns": {
          "_0": "`true` if the contract implements `interfaceID` and  `interfaceID` is not 0xffffffff, `false` otherwise"
        }
      }
    },
    "version": 1
  },
  "userdoc": {
    "kind": "user",
    "methods": {
      "balanceOf(address)": {
        "notice": "Commented function are need to be worked on later on!"
      },
      "supportsInterface(bytes4)": {
        "notice": "Query if a contract implements an interface"
      }
    },
    "version": 1
  }
}