{
  "contractName": "ERC721",
  "abi": [
    {
      "inputs": [],
      "stateMutability": "nonpayable",
      "type": "constructor"
    },
    {
      "anonymous": false,
      "inputs": [
        {
          "indexed": true,
          "internalType": "address",
          "name": "_owner",
          "type": "address"
        },
        {
          "indexed": true,
          "internalType": "address",
          "name": "_approved",
          "type": "address"
        },
        {
          "indexed": true,
          "internalType": "uint256",
          "name": "_tokenId",
          "type": "uint256"
        }
      ],
      "name": "Approval",
      "type": "event"
    },
    {
      "anonymous": false,
      "inputs": [
        {
          "indexed": true,
          "internalType": "address",
          "name": "_from",
          "type": "address"
        },
        {
          "indexed": true,
          "internalType": "address",
          "name": "_to",
          "type": "address"
        },
        {
          "indexed": true,
          "internalType": "uint256",
          "name": "_tokenId",
          "type": "uint256"
        }
      ],
      "name": "Transfer",
      "type": "event"
    },
    {
      "inputs": [
        {
          "internalType": "bytes4",
          "name": "interfaceID",
          "type": "bytes4"
        }
      ],
      "name": "supportsInterface",
      "outputs": [
        {
          "internalType": "bool",
          "name": "",
          "type": "bool"
        }
      ],
      "stateMutability": "view",
      "type": "function"
    },
    {
      "inputs": [
        {
          "internalType": "address",
          "name": "_owner",
          "type": "address"
        }
      ],
      "name": "balanceOf",
      "outputs": [
        {
          "internalType": "uint256",
          "name": "",
          "type": "uint256"
        }
      ],
      "stateMutability": "view",
      "type": "function"
    },
    {
      "inputs": [
        {
          "internalType": "uint256",
          "name": "_tokenId",
          "type": "uint256"
        }
      ],
      "name": "ownerOf",
      "outputs": [
        {
          "internalType": "address",
          "name": "",
          "type": "address"
        }
      ],
      "stateMutability": "view",
      "type": "function"
    },
    {
      "inputs": [
        {
          "internalType": "address",
          "name": "_from",
          "type": "address"
        },
        {
          "internalType": "address",
          "name": "_to",
          "type": "address"
        },
        {
          "internalType": "uint256",
          "name": "_tokenId",
          "type": "uint256"
        }
      ],
      "name": "transferFrom",
      "outputs": [],
      "stateMutability": "nonpayable",
      "type": "function"
    },
    {
      "inputs": [
        {
          "internalType": "address",
          "name": "_to",
          "type": "address"
        },
        {
          "internalType": "uint256",
          "name": "tokenId",
          "type": "uint256"
        }
      ],
      "name": "approve",
      "outputs": [],
      "stateMutability": "nonpayable",
      "type": "function"
    }
  ],
  "bytecode": "0x608060405234801561001057600080fd5b506100407f01ffc9a7a5cef8baa21ed3c5c0d7e23accb804b619e9333b597f47a0d84076e26100b860201b60201c565b6100b37f22c82707ba960a14c7592ffb6b8cfaa073fed0048a84cc7fa41f6b5bd8e7f2e47f3a6eb71757dfc6e784c1459d26270140c2c147d95ca985c80026fc5301c3eca17f8a7e378434598edc36d108689a030cbc9d7d465de4f74c71bae1028eed6a881b18186100b860201b60201c565b61022e565b600063ffffffff60e01b9050807bffffffffffffffffffffffffffffffffffffffffffffffffffffffff1916827bffffffffffffffffffffffffffffffffffffffffffffffffffffffff191603610144576040517f08c379a000000000000000000000000000000000000000000000000000000000815260040161013b9061020e565b60405180910390fd5b6001600080847bffffffffffffffffffffffffffffffffffffffffffffffffffffffff19167bffffffffffffffffffffffffffffffffffffffffffffffffffffffff1916815260200190815260200160002060006101000a81548160ff0219169083151502179055505050565b600082825260208201905092915050565b7f4552433136352d20496e76616c696420496e7465726661636549440000000000600082015250565b60006101f8601b836101b1565b9150610203826101c2565b602082019050919050565b60006020820190508181036000830152610227816101eb565b9050919050565b610d988061023d6000396000f3fe608060405234801561001057600080fd5b50600436106100575760003560e01c806301ffc9a71461005c578063095ea7b31461008c57806323b872dd146100a85780636352211e146100c457806370a08231146100f4575b600080fd5b61007660048036038101906100719190610740565b610124565b6040516100839190610788565b60405180910390f35b6100a660048036038101906100a19190610837565b61018b565b005b6100c260048036038101906100bd9190610877565b610326565b005b6100de60048036038101906100d991906108ca565b610336565b6040516100eb9190610906565b60405180910390f35b61010e60048036038101906101099190610921565b6103e7565b60405161011b919061095d565b60405180910390f35b6000806000837bffffffffffffffffffffffffffffffffffffffffffffffffffffffff19167bffffffffffffffffffffffffffffffffffffffffffffffffffffffff1916815260200190815260200160002060009054906101000a900460ff169050919050565b600061019682610336565b90503373ffffffffffffffffffffffffffffffffffffffff168173ffffffffffffffffffffffffffffffffffffffff1614610206576040517f08c379a00000000000000000000000000000000000000000000000000000000081526004016101fd906109fb565b60405180910390fd5b8273ffffffffffffffffffffffffffffffffffffffff168173ffffffffffffffffffffffffffffffffffffffff1603610274576040517f08c379a000000000000000000000000000000000000000000000000000000000815260040161026b90610a8d565b60405180910390fd5b826003600084815260200190815260200160002060006101000a81548173ffffffffffffffffffffffffffffffffffffffff021916908373ffffffffffffffffffffffffffffffffffffffff160217905550818373ffffffffffffffffffffffffffffffffffffffff168273ffffffffffffffffffffffffffffffffffffffff167f8c5be1e5ebec7d5bd14f71427d1e84f3dd0314c0f7b2291e5b200ac8c7c3b92560405160405180910390a4505050565b61033183838361049e565b505050565b6000806001600084815260200190815260200160002060009054906101000a900473ffffffffffffffffffffffffffffffffffffffff169050600073ffffffffffffffffffffffffffffffffffffffff168173ffffffffffffffffffffffffffffffffffffffff16036103de576040517f08c379a00000000000000000000000000000000000000000000000000000000081526004016103d590610af9565b60405180910390fd5b80915050919050565b60008073ffffffffffffffffffffffffffffffffffffffff168273ffffffffffffffffffffffffffffffffffffffff1603610457576040517f08c379a000000000000000000000000000000000000000000000000000000000815260040161044e90610b65565b60405180910390fd5b600260008373ffffffffffffffffffffffffffffffffffffffff1673ffffffffffffffffffffffffffffffffffffffff168152602001908152602001600020549050919050565b8273ffffffffffffffffffffffffffffffffffffffff166104be82610336565b73ffffffffffffffffffffffffffffffffffffffff1614610514576040517f08c379a000000000000000000000000000000000000000000000000000000000815260040161050b90610bf7565b60405180910390fd5b600073ffffffffffffffffffffffffffffffffffffffff168273ffffffffffffffffffffffffffffffffffffffff1603610583576040517f08c379a000000000000000000000000000000000000000000000000000000000815260040161057a90610c89565b60405180910390fd5b6001600260008573ffffffffffffffffffffffffffffffffffffffff1673ffffffffffffffffffffffffffffffffffffffff16815260200190815260200160002060008282546105d39190610cd8565b925050819055506001600260008473ffffffffffffffffffffffffffffffffffffffff1673ffffffffffffffffffffffffffffffffffffffff168152602001908152602001600020600082825461062a9190610d0c565b92505081905550816001600083815260200190815260200160002060006101000a81548173ffffffffffffffffffffffffffffffffffffffff021916908373ffffffffffffffffffffffffffffffffffffffff160217905550808273ffffffffffffffffffffffffffffffffffffffff168473ffffffffffffffffffffffffffffffffffffffff167fddf252ad1be2c89b69c2b068fc378daa952ba7f163c4a11628f55a4df523b3ef60405160405180910390a4505050565b600080fd5b60007fffffffff0000000000000000000000000000000000000000000000000000000082169050919050565b61071d816106e8565b811461072857600080fd5b50565b60008135905061073a81610714565b92915050565b600060208284031215610756576107556106e3565b5b60006107648482850161072b565b91505092915050565b60008115159050919050565b6107828161076d565b82525050565b600060208201905061079d6000830184610779565b92915050565b600073ffffffffffffffffffffffffffffffffffffffff82169050919050565b60006107ce826107a3565b9050919050565b6107de816107c3565b81146107e957600080fd5b50565b6000813590506107fb816107d5565b92915050565b6000819050919050565b61081481610801565b811461081f57600080fd5b50565b6000813590506108318161080b565b92915050565b6000806040838503121561084e5761084d6106e3565b5b600061085c858286016107ec565b925050602061086d85828601610822565b9150509250929050565b6000806000606084860312156108905761088f6106e3565b5b600061089e868287016107ec565b93505060206108af868287016107ec565b92505060406108c086828701610822565b9150509250925092565b6000602082840312156108e0576108df6106e3565b5b60006108ee84828501610822565b91505092915050565b610900816107c3565b82525050565b600060208201905061091b60008301846108f7565b92915050565b600060208284031215610937576109366106e3565b5b6000610945848285016107ec565b91505092915050565b61095781610801565b82525050565b6000602082019050610972600083018461094e565b92915050565b600082825260208201905092915050565b7f4572722d417070726f76616c2d30313a20596f7520617265206e6f742074686560008201527f206f776e6572206f6620746f6b656e2100000000000000000000000000000000602082015250565b60006109e5603083610978565b91506109f082610989565b604082019050919050565b60006020820190508181036000830152610a14816109d8565b9050919050565b7f4572722d417070726f76616c2d30323a596f752063616e6e6f7420617070726f60008201527f766520746f20796f7572206f776e206164647265737321000000000000000000602082015250565b6000610a77603783610978565b9150610a8282610a1b565b604082019050919050565b60006020820190508181036000830152610aa681610a6a565b9050919050565b7f4552433732313a20496e76616c696420517565727920666f7220746f6b656e73600082015250565b6000610ae3602083610978565b9150610aee82610aad565b602082019050919050565b60006020820190508181036000830152610b1281610ad6565b9050919050565b7f4552433732313a20496e76616c69642041646472657373210000000000000000600082015250565b6000610b4f601883610978565b9150610b5a82610b19565b602082019050919050565b60006020820190508181036000830152610b7e81610b42565b9050919050565b7f455243373231202d20596f7520617265206e6f7420746865206f776e6572206f60008201527f66207468697320746f6b656e2100000000000000000000000000000000000000602082015250565b6000610be1602d83610978565b9150610bec82610b85565b604082019050919050565b60006020820190508181036000830152610c1081610bd4565b9050919050565b7f455243373231202d2053656e64696e6720746f6b656e20746f20616e20696e7660008201527f616c696420616464726573730000000000000000000000000000000000000000602082015250565b6000610c73602c83610978565b9150610c7e82610c17565b604082019050919050565b60006020820190508181036000830152610ca281610c66565b9050919050565b7f4e487b7100000000000000000000000000000000000000000000000000000000600052601160045260246000fd5b6000610ce382610801565b9150610cee83610801565b925082821015610d0157610d00610ca9565b5b828203905092915050565b6000610d1782610801565b9150610d2283610801565b9250827fffffffffffffffffffffffffffffffffffffffffffffffffffffffffffffffff03821115610d5757610d56610ca9565b5b82820190509291505056fea2646970667358221220a2a8a1747914cd135ad4f08d29b96ada2507238391df3c8385af5653a1c1153164736f6c634300080e0033",
  "immutableReferences": {},
  "source": "// SPDX-License-Identifier: MIT\npragma solidity >=0.4.22 <0.9.0;\n\nimport './ERC165.sol';\nimport './interfaces/IERC721.sol';\n\ncontract ERC721 is ERC165, IERC721{\n\n    mapping(uint => address) private _tokenOwner;       //Token owner by address (if a user has created multiple tokens)\n    mapping(address => uint) private _ownedTokensCount;  //Tokens owned by address\n    mapping(uint => address) private _tokenApprovals;   //Map of tokenID to approved address\n\n    constructor(){\n        _registerInterface(bytes4(keccak256('balanceOf(bytes4)')^keccak256('ownerOf(bytes4)')^keccak256('transferFrom(bytes4)')));\n    }\n\n    function _mint(address _to , uint _tokenId) internal virtual {\n\n        require(_to != address(0), \"Minting to Invalid Address\");\n        require(_check(_tokenId),\"Token already minted!\");\n        _tokenOwner[_tokenId] = _to;\n        _ownedTokensCount[_to] += 1;\n\n        emit Transfer(address(0), _to, _tokenId);   //By default 0 for minter\n    }\n\n    modifier check(address _checkAddress, uint _tokenId){\n        require(_checkAddress != address(0x0), \"ERC721: Invalid Address!\"); //Use address(0) to compare to an address else uint \n        require(_check(_tokenId),\"ERC721: Token already exists!\");\n        _;\n    }\n\n    function _check(uint _tokenId) internal view returns(bool){\n        address _checkAddress = _tokenOwner[_tokenId];\n        //Map will output 0 if the _tokenId does not exists\n        //True if 0 and False if the token has owner address\n        if(_checkAddress != address(0)){\n            return false;\n        }else{\n            return true;\n        }\n    }\n\n    function balanceOf(address _owner) public override view returns(uint){\n        require(_owner != address(0),\"ERC721: Invalid Address!\");\n        return _ownedTokensCount[_owner];\n    }\n\n    function ownerOf(uint _tokenId) public view override returns(address){\n        address owner = _tokenOwner[_tokenId];\n        require(owner != address(0), \"ERC721: Invalid Query for tokens\");\n        return owner;\n    }\n\n    /// @notice Transfer ownership of an NFT -- THE CALLER IS RESPONSIBLE\n    ///  TO CONFIRM THAT `_to` IS CAPABLE OF RECEIVING NFTS OR ELSE\n    ///  THEY MAY BE PERMANENTLY LOST\n    /// @dev Throws unless `msg.sender` is the current owner, an authorized\n    ///  operator, or the approved address for this NFT. Throws if `_from` is\n    ///  not the current owner. Throws if `_to` is the zero address. Throws if\n    ///  `_tokenId` is not a valid NFT.\n    /// @param _from The current owner of the NFT\n    /// @param _to The new owner\n    /// @param _tokenId The NFT to transfer\n    function _transferFrom(address _from, address _to, uint256 _tokenId) internal {\n        require(ownerOf(_tokenId) == _from, \"ERC721 - You are not the owner of this token!\");\n        require(_to != address(0), \"ERC721 - Sending token to an invalid address\");\n        _ownedTokensCount[_from] -= 1;  //Deduction from current owner\n        _ownedTokensCount[_to] += 1;    //Addition to new owner\n        _tokenOwner[_tokenId] = _to;    \n        emit Transfer(_from, _to, _tokenId);\n    }\n\n    function transferFrom(address _from,address _to,uint _tokenId) override public {\n        _transferFrom(_from, _to, _tokenId);\n    }\n\n    function approve(address _to, uint tokenId) override public {\n        address owner = ownerOf(tokenId);\n        require(owner == msg.sender, \"Err-Approval-01: You are not the owner of token!\");\n        require(owner != _to, \"Err-Approval-02:You cannot approve to your own address!\");\n        _tokenApprovals[tokenId] = _to;\n        emit Approval(owner, _to, tokenId);\n    }\n\n}",
  "sourcePath": "/home/blockr/Desktop/nft/src/contracts/ERC721.sol",
  "compiler": {
    "name": "solc",
    "version": "0.8.14+commit.80d49f37.Emscripten.clang"
  },
  "schemaVersion": "3.4.6",
  "updatedAt": "2022-06-11T18:58:42.423Z",
  "devdoc": {
    "kind": "dev",
    "methods": {
      "supportsInterface(bytes4)": {
        "details": "Interface identification is specified in ERC-165. This function  uses less than 30,000 gas.",
        "params": {
          "interfaceID": "The interface identifier, as specified in ERC-165"
        },
        "returns": {
          "_0": "`true` if the contract implements `interfaceID` and  `interfaceID` is not 0xffffffff, `false` otherwise"
        }
      }
    },
    "version": 1
  },
  "userdoc": {
    "kind": "user",
    "methods": {
      "balanceOf(address)": {
        "notice": "Commented function are need to be worked on later on!"
      },
      "supportsInterface(bytes4)": {
        "notice": "Query if a contract implements an interface"
      }
    },
    "version": 1
  }
}